:100000000C9434000C9451000C9451000C94BD00DD
:100010000C9451000C9451000C9451000C9451001C
:100020000C9451000C9451000C9451000C9451000C
:100030000C9451000C9451000C9451000C945100FC
:100040000C94EC000C9451000C9451000C94510051
:100050000C9451000C9498000C9451000C94510095
:100060000C9451000C94510011241FBECFEFD8E026
:10007000DEBFCDBF11E0A0E0B1E0EAEAF2E002C0ED
:1000800005900D92A031B107D9F721E0A0E1B1E0D0
:1000900001C01D92A631B207E1F70E9487000C94BF
:1000A00053010C940000ECE7F0E010828081806442
:1000B000808380818F778083808186608083808148
:1000C00080628083EAE7F0E08081806880838081BD
:1000D000886080838081876080830895F89487E0BA
:1000E00084B998E195B981E08093680090936B00A2
:1000F0009FEF9AB91BB81092C10095E095BD95EF9E
:1001000096BD80936E000E945300789408950E94DB
:100110006E00EAE7F0E08081806480832FEF81EE5B
:1001200094E0215080409040E1F700C00000F1CF02
:100130001F920F920FB60F9211248F939F93EF93FC
:10014000FF938091790080931501EAE7F0E08081C8
:100150008061808380911501982F9F709093130187
:1001600082958F7080931401FF91EF919F918F91F1
:100170000F900FBE0F901F9018951F920F920FB601
:100180000F9211248F9380911001811119C083B1B6
:100190008871803149F4809111018150809311015F
:1001A0008FEF809310010CC083B18871883041F4C7
:1001B000809111018F5F809311018FEF8093100167
:1001C0008F910F900FBE0F901F901895962F9095BE
:1001D00089236423862B08951F920F920FB60F92E6
:1001E00011242F933F934F935F936F937F938F933C
:1001F0009F93AF93BF93EF93FF9385EF86BD90914D
:1002000012019F5F8BEA989F812D11248695282FDC
:10021000220F820F981B9093120191110EC0E09152
:100220001301F0E0E050FF4F80818BB985B141E0D0
:1002300067E00E94E60085B91BC0913071F4E0913F
:100240001401F0E0E050FF4F80818BB985B142E0AE
:1002500067E00E94E60085B90BC0923049F48091B6
:1002600011018BB985B144E067E00E94E60085B9D1
:1002700080911001882319F081508093100185B37B
:10028000816085BBFF91EF91BF91AF919F918F915D
:100290007F916F915F914F913F912F910F900FBE82
:0A02A0000F901F901895F894FFCFFF
:1002AA004079243019120278001808032721060E13
:00000001FF
