S00F00005072656C6162342E737265638B
S11300000C9434000C9451000C9451000C94750021
S11300100C9451000C9451000C9451000C94510018
S11300200C9451000C9451000C9451000C94510008
S11300300C9451000C9451000C9451000C945100F8
S11300400C949A000C9451000C9451000C9451009F
S11300500C9451000C9451000C9451000C945100D8
S11300600C9451000C94510011241FBECFEFD8E022
S1130070DEBFCDBF11E0A0E0B1E0E2E6F1E002C0F6
S113008005900D92A030B107D9F721E0A0E0B1E0CE
S113009001C01D92A130B207E1F70E9469000C94DF
S11300A0AF000C940000F8948FEF8AB91BB810923B
S11300B0C10014B89CE095B981E0809368009093E6
S11300C06B0095E095BD98EC96BD80936E00789496
S11300D008950E9453002FEF81EE94E02150804058
S11300E09040E1F700C00000F6CF1F920F920FB6C8
S11300F00F9211248F93809100018823ACF083B177
S11301008C70883039F48BB18F5F8BB98FEF80930B
S113011000010AC083B18C70843031F48BB18150FA
S11301208BB98FEF809300018F910F900FBE0F90CA
S11301301F9018951F920F920FB60F9211248F9350
S113014088EC86BD8091000188231CF48150809343
S113015000018F910F900FBE0F901F901895F89487
S1050160FFCFCB
S9030000FC
